:100000000C9462000C948A000C948A000C948A0070
:100010000C948A000C948A000C948A000C948A0038
:100020000C948A000C948A000C948A000C948A0028
:100030000C948A000C948A000C948A000C948A0018
:100040000C941D030C948A000C94EB020C94C502D2
:100050000C948A000C948A000C948A000C948A00F8
:100060000C948A000C948A000000000024002700F1
:100070002A0000000000250028002B0000000000DE
:1000800023002600290004040404040404040202DA
:100090000202020203030303030301020408102007
:1000A0004080010204081020010204081020000012
:1000B0000008000201000003040700000000000027
:1000C0000000570411241FBECFEFD8E0DEBFCDBF24
:1000D00011E0A0E0B1E0E2E2F9E002C005900D928B
:1000E000A835B107D9F721E0A8E5B1E001C01D921C
:1000F000AE3FB207E1F710E0C2E6D0E004C02197BE
:10010000FE010E948404C136D107C9F70E9467032B
:100110000C948F040C940000CF92DF92EF92FF9228
:100120000F931F93CF93DF936C017A018B01C0E093
:10013000D0E0CE15DF0589F0D8016D918D01D60193
:10014000ED91FC910190F081E02DC6010995892B7C
:1001500011F47E0102C02196ECCFC701DF91CF914F
:100160001F910F91FF90EF90DF90CF900895FC01C9
:10017000918D828D981761F0828DDF01A80FB11DDE
:100180005D968C91928D9F5F9F73928F90E0089502
:100190008FEF9FEF0895FC01918D828D981731F0BC
:1001A000828DE80FF11D858D90E008958FEF9FEF10
:1001B0000895FC01918D228D892F90E0805C9F4FE6
:1001C000821B91098F739927089581E691E00E941F
:1001D000D90021E0892B09F420E0822F0895FC0149
:1001E000848DDF01A80FB11DA35ABF4F2C91848DC0
:1001F00090E001968F739927848FA689B7892C93F5
:10020000A089B1898C9180648C93938D848D98138F
:1002100006C00288F389E02D80818F7D8083089558
:10022000EF92FF920F931F93CF93DF93EC0181E046
:10023000888F9B8D8C8D981305C0E889F989808102
:1002400085FD24C0F62E0B8D10E00F5F1F4F0F733E
:100250001127E02E8C8DE8120CC00FB607FCFACFE8
:10026000E889F989808185FFF5CFCE010E94EF00F2
:10027000F1CF8B8DFE01E80FF11DE35AFF4FF082A5
:100280000B8FEA89FB898081806207C0EE89FF8934
:100290006083E889F98980818064808381E090E0CF
:1002A000DF91CF911F910F91FF90EF900895682FEC
:1002B00081E691E00C941001CF93DF93EC01888DDF
:1002C0008823C9F0EA89FB89808185FD05C0A8895A
:1002D000B9898C9186FD0FC00FB607FCF5CF8081E0
:1002E00085FFF2CFA889B9898C9185FFEDCFCE012A
:1002F0000E94EF00E7CFDF91CF91089580E090E07A
:10030000892B29F00E94E50081110C9400000895CA
:10031000833081F028F4813099F08230A1F0089583
:100320008730A9F08830B9F08430D1F48091800012
:100330008F7D03C0809180008F7780938000089527
:1003400084B58F7702C084B58F7D84BD0895809178
:10035000B0008F7703C08091B0008F7D8093B00094
:100360000895CF93DF93282F30E0F901E255FF4F36
:100370008491F901E656FF4FD491F901EA57FF4FF6
:10038000C491CC2391F081110E948801EC2FF0E000
:10039000EE0FFF1FE458FF4FA591B491EC91ED23B0
:1003A00081E090E021F480E002C080E090E0DF9105
:1003B000CF9108951F93CF93DF93282F30E0F90159
:1003C000E255FF4F8491F901E656FF4FD491F901B0
:1003D000EA57FF4FC491CC23C9F0162F81110E9418
:1003E0008801EC2FF0E0EE0FFF1FEE58FF4FA591B4
:1003F000B4918FB7F894111105C09C91ED2FE09541
:10040000E92302C0EC91ED2BEC938FBFDF91CF91EC
:100410001F910895CF93DF9390E0FC01E656FF4FC4
:100420002491FC01EA57FF4F8491882361F190E009
:10043000880F991FFC01E859FF4FC591D491FC0129
:10044000EE58FF4FA591B491611109C09FB7F89480
:100450008881209582238883EC912E230BC0623003
:1004600061F49FB7F8943881822F80958323888325
:10047000EC912E2B2C939FBF06C08FB7F894E88188
:100480002E2B28838FBFDF91CF9108953FB7F8942B
:1004900080915D0190915E01A0915F01B09160013A
:1004A00026B5A89B05C02F3F19F00196A11DB11DCF
:1004B0003FBFBA2FA92F982F8827820F911DA11D0A
:1004C000B11DBC01CD0142E0660F771F881F991F47
:1004D0004A95D1F708958F929F92AF92BF92CF9293
:1004E000DF92EF92FF920E9446024B015C0184EF83
:1004F000C82EDD24D394E12CF12C0E944602DC01AD
:10050000CB0188199909AA09BB09883E9340A10526
:10051000B10558F021E0C21AD108E108F10888EECF
:10052000880E83E0981EA11CB11CC114D104E10403
:10053000F10419F7FF90EF90DF90CF90BF90AF904C
:100540009F908F900895009769F0FC010190002022
:10055000E9F73197AF01481B590BBC0181E691E0E7
:100560000C948C0080E090E00895CF93DF930E947C
:10057000A302EC0180E191E00E94A3028C0F9D1F79
:10058000DF91CF9108950E948A041F920F920FB6B7
:100590000F9211242F933F934F935F936F937F9309
:1005A0008F939F93AF93BF93EF93FF9381E691E077
:1005B0000E94EF00FF91EF91BF91AF919F918F91BA
:1005C0007F916F915F914F913F912F910F900FBE4F
:1005D0000F901F9018951F920F920FB60F92112433
:1005E0002F938F939F93EF93FF93E0917101F0917D
:1005F00072018081E0917701F091780182FD12C053
:10060000908180917A018F5F8F7320917B01821797
:1006100051F0E0917A01F0E0EF59FE4F958F809311
:100620007A0101C08081FF91EF919F918F912F916D
:100630000F900FBE0F901F9018951F920F920FB63C
:100640000F9211242F933F938F939F93AF93BF9358
:100650008091590190915A01A0915B01B0915C0188
:100660003091580123E0230F2D3720F40196A11D6E
:10067000B11D05C026E8230F0296A11DB11D2093D0
:1006800058018093590190935A01A0935B01B09354
:100690005C0180915D0190915E01A0915F01B0913C
:1006A00060010196A11DB11D80935D0190935E01D3
:1006B000A0935F01B0936001BF91AF919F918F9123
:1006C0003F912F910F900FBE0F901F901895789427
:1006D00084B5826084BD84B5816084BD85B5826047
:1006E00085BD85B5816085BD80916E0081608093F8
:1006F0006E00109281008091810082608093810061
:100700008091810081608093810080918000816070
:10071000809380008091B10084608093B1008091CB
:10072000B00081608093B00080917A0084608093F3
:100730007A0080917A00826080937A0080917A00BA
:10074000816080937A0080917A00806880937A003B
:100750001092C10060E082E00E940A0260E083E043
:100760000E940A0260E084E00E940A0260E085E0E4
:100770000E940A0260E086E00E940A0261E089E0CD
:100780000E940A0261E08AE00E940A0261E08BE0B6
:100790000E940A02E0917101F091720182E080836F
:1007A000E0916D01F0916E011082E0916F01F09186
:1007B00070018FEC808310927901E0917501F091C6
:1007C000760186E08083E0917301F091740180816D
:1007D00080618083E0917301F09174018081886071
:1007E0008083E0917301F09174018081806880833F
:1007F000E0917301F091740180818F7D80830E946C
:100800006B0281E691E00E94D900892B01F187E01B
:100810000E94B1010E94570183E191E00E94A3026E
:1008200088E00E94B1010E94570183E191E00E949B
:10083000A30286E00E94B1010E94570183E191E08A
:100840000E94A30283E00E94B1010E94570185E14A
:1008500091E00E94B5028AE291E00E94B50283E035
:100860000E94B101019771F461E08AE00E94DA010F
:100870000E946B0260E08AE00E94DA0189E391E065
:100880000E94B50260E08BE00E94DA018BE491E007
:100890000E94B5020E946B0281E691E00E94B700BF
:1008A000082E000C990BC0970A97B0F7F3CFE1E63A
:1008B000F1E01382128288EE93E0A0E0B0E084833E
:1008C0009583A683B78384E091E09183808385EC50
:1008D00090E09587848784EC90E09787868780EC0A
:1008E00090E0918B808B81EC90E0938B828B82ECFB
:1008F00090E0958B848B86EC90E0978B868B118EA5
:10090000128E138E148E0895EE0FFF1F0590F49132
:10091000E02D099481E090E0F8940C948F04F89411
:02092000FFCF07
:100922000000000010018C00D900B700CB005C0170
:100932000D0A002C00476F6E6520696E746F20618E
:1009420075746F20636865636B00496E206D616E1C
:1009520075616C206D6F64650047656E65726174C8
:100962006F722073746F707065640050756D7020C3
:0809720073746F70706564007E
:00000001FF
